:020000040800F2
:1000000060060020B101000859060008EF0500084D
:10001000550600086B0200085508000800000000A3
:1000200000000000000000000000000005070008BC
:100030006F02000800000000E1060008F107000858
:10004000CB010008CB010008CB010008CB01000860
:10005000CB010008CB01000811030008CB01000808
:10006000CB010008CB010008CB010008CB01000840
:10007000CB010008CB010008CB010008CB01000830
:10008000CB010008CB010008CB010008CB01000820
:10009000CB010008CB010008CB010008CB01000810
:1000A000CB010008CB010008CB010008CB01000800
:1000B000CB010008CB010008CB010008CB010008F0
:1000C000CB010008CB010008CB010008CB010008E0
:1000D000CB010008CB010008CB010008CB010008D0
:1000E0004D030008CB010008CB010008CB0100083C
:1000F000CB010008CB010008CB010008CB010008B0
:10010000CB010008CB010008CB010008CB0100089F
:10011000CB010008CB010008CB010008CB0100088F
:10012000CB010008CB010008CB010008CB0100087F
:1001300000F002F800F02CF80AA090E8000C8244CD
:100140008344AAF10107DA4501D100F021F8AFF2AA
:10015000090EBAE80F0013F0010F18BFFB1A43F0A5
:100160000103184738070000480700000023002457
:1001700000250026103A28BF78C1FBD8520728BFB7
:1001800030C148BF0B6070471FB51FBD10B510BD13
:1001900000F031F81146FFF7F7FF00F07DFB00F0AB
:1001A0004FF803B4FFF7F2FF03BC00F057F800006C
:1001B0000948804709480047FEE7FEE7FEE7FEE7FB
:1001C000FEE7FEE7FEE7FEE7FEE7FEE70448054937
:1001D000054A064B70470000F5070008310100088A
:1001E0006000002060060020600200206002002005
:1001F000704770477047754600F02CF8AE46050012
:100200006946534620F00700854618B020B5FFF731
:10021000DDFFBDE820404FF000064FF000074FF033
:1002200000084FF0000B21F00701AC46ACE8C00914
:10023000ACE8C009ACE8C009ACE8C0098D4670471D
:1002400010B50446AFF300802046BDE81040FFF72C
:10025000A8BF000000487047000000200149182096
:10026000ABBEFEE726000200704700BFFEE7704706
:1002700001B502E00098401E009000980028F9D1D6
:1002800008BD01B502E00098401E009000980028CB
:10029000F9D108BD0EB50121052000F023FA042094
:1002A0008DF80B000120ADF8080002A9164800F0F7
:1002B00011F90021084600F0EDF80120009000201F
:1002C0008DF8040008208DF8050001208DF8060047
:1002D000684600F077F800F0BFF80121112000F027
:1002E00001FA4FF40050ADF8080002A9074800F0E9
:1002F000F1F80D21022000F0CDF84FF400500090ED
:10030000684600F05FF80EBD000801400010014093
:1003100010B5012000F042F890B120200A49086091
:1003200001200860022008606FF07F40FFF7A9FFFE
:1003300020200549091F086001200860022008608C
:10034000012000F025F810BD140C014010B54FF449
:10035000005000F023F898B120200C4908600120DB
:10036000091F0860022008606FF07F40FFF789FFD7
:1003700020200649091F086001200860022008604B
:100380004FF4005000F004F810BD0000140C0140C0
:100390000149086070470000140401400146002034
:1003A0000022074B1B6803EA0102054B14331B684C
:1003B0000B4013B10AB1012000E00020704700009B
:1003C00000040140002123498279002A3AD00A46DC
:1003D000126803689A430B461A600A1D1268036884
:1003E0009A430B1D1A60027911440A6803681A4384
:1003F0000A60184A0832126803689A43154B08339A
:100400001A601A1D126803689A43124B0C331A6063
:100410004279102A0ED11A1F126803681A430D4B35
:1004200008331A601A1D126803681A43094B0C330B
:100430001A600DE00749427911440A6803681A43BB
:100440000A6005E0027911440A6803689A430A6069
:10045000704700000004014008B54FF4C06000F090
:1004600035F906208DF8000001208DF801008DF887
:1004700002008DF80300684600F0F0F828208DF89F
:10048000000002208DF801008DF80200684600F09F
:10049000E5F808BD30B500228B071C0F0F2303FAC7
:1004A00004F20B4B8C1053F824309343084C8D10FE
:1004B00044F8253023468C1053F824308C07240F41
:1004C00000FA04F42343024C8D1044F8253030BD6B
:1004D000080001402DE9F0410246002500260020D9
:1004E00000230024002791F803C00CF00F0591F8B9
:1004F00003C00CF0100CBCF1000F03D091F802C047
:100500004CEA050591F800C0BCF1000F31D0146829
:1005100000202BE04FF0010C0CFA00F3B1F800C002
:100520000CEA03069E4220D183004FF00F0C0CFA18
:1005300003F7BC4305FA03FC4CEA040491F803C03A
:10054000BCF1280F06D14FF0010C0CFA00FCC2F8E8
:1005500014C00AE091F803C0BCF1480F05D14FF078
:10056000010C0CFA00FCC2F810C0401C0828D1D3C2
:100570001460B1F800C0BCF1FF0F34DD54680020F6
:100580002EE000F1080C4FF0010808FA0CF3B1F866
:1005900000C00CEA03069E4221D183004FF00F0CED
:1005A0000CFA03F7BC4305FA03FC4CEA040491F887
:1005B00003C0BCF1280F05D100F1080C08FA0CF8B3
:1005C000C2F8148091F803C0BCF1480F07D100F1C4
:1005D000080C4FF0010808FA0CF8C2F81080401C13
:1005E0000828CED35460BDE8F0810161704700BF98
:1005F000FEE7000008B50121082000F073F8102084
:100600008DF8030003208DF802002020ADF80000D3
:1006100069460F48FFF75EFF0120ADF8000069460C
:100620000B48FFF757FF0220ADF800006946084865
:10063000FFF750FF20210648FFF7D7FF01210448AC
:10064000FFF7D3FF02210248FFF7CFFF08BD0000EC
:10065000000C014000BFFEE77047000070B50021AC
:1006600000230F22C47804B3154C246804F4E0641A
:10067000C4F5E064210AC1F10403CA40447804FAD5
:1006800003F184781440214309010E4C0678A155EA
:10069000047804F01F050124AC4005786D11AD000D
:1006A00005F1E025C5F8004109E0047804F01F05D4
:1006B0000124AC40044D0678761145F8264070BD03
:1006C0000CED00E000E400E080E100E002490143BD
:1006D000024A1160704700000000FA050CED00E0CE
:1006E0007047000029B1064A92690243044B9A619F
:1006F00004E0034A92698243014B9A61704700000B
:1007000000100240704710B500F002F810BD000064
:100710000CB50020019000903348006840F4803010
:100720003149086000BF3048006800F40030009094
:100730000198401C0190009818B90198B0F5A06F7D
:10074000F1D12948006800F4003010B10120009078
:1007500001E0002000900098012843D12348006860
:1007600040F01000214908600846006820F00300AE
:1007700008600846006840F0020008601A484068B7
:10078000194948600846406848600846406840F497
:10079000806048600846406820F47C104860084645
:1007A000406840F4E81048600846006840F08070F7
:1007B000086000BF0C48006800F000700028F9D005
:1007C0000948406820F0030007494860084640682F
:1007D00040F00200486000BF0348406800F00C0091
:1007E0000828F9D10CBD0000001002400020024092
:1007F0007047000010B51348006840F0010011492F
:10080000086008464068104908400E49486008469C
:1008100000680E4908400B4908600846006820F44B
:10082000802008600846406820F4FE0048604FF4CD
:100830001F008860FFF767FF4FF000600449086001
:1008400010BD0000001002400000FFF8FFFFF6FEA0
:1008500008ED00E000BFFEE7FFF7CCFE0CE0002053
:10086000064908600648FFF703FD01200549C1F865
:1008700080010348FFF7FCFCF1E700008081214282
:10088000FFFF0F0000802142FFF7B4FEFFF702FDDB
:1008900001E0FFF7E1FFFCE7FFF7F6FFAC08000817
:0C08A00000000020600600006C01000851
:0400000508000131BD
:00000001FF
